{
    "contractName": "TodoList",
    "abi": [
        {
            "constant": true,
            "inputs": [],
            "name": "taskCount",
            "outputs": [
                {
                    "name": "",
                    "type": "uint256"
                }
            ],
            "payable": false,
            "stateMutability": "view",
            "type": "function"
        }
    ],
    "bytecode": "608060405260008055348015601357600080fd5b506099806100226000396000f300608060405260043610603e5763ffffffff7c0100000000000000000000000000000000000000000000000000000000600035041663b6cb58a581146043575b600080fd5b348015604e57600080fd5b5060556067565b60408051918252519081900360200190f35b600054815600a165627a7a72305820d93545e4d0f30b777902048b0837a418bf2031650bb4610c76640b68b764b89b0029",
    "sourcePath": "e:/dev/Projects/tramsmart/contracts/TodoList.sol",
    "compiler": {
        "name": "solc",
        "version": "0.4.26+commit.4563c3fc"
    },
    "functionHashes": {
        "taskCount()": "b6cb58a5"
    },
    "gasEstimates": {
        "creation": {
            "codeDepositCost": "30600",
            "executionCost": "5087",
            "totalCost": "35687"
        },
        "external": {
            "taskCount()": "384"
        }
    }
}